:020000040000FA
:0200000077285F
:08000800A808031D08280800E8
:10001000F9300000000000000000FF3E031D092829
:1000200000000000000000000000A80B08280800E5
:100030008C120E128E150E168E11A6018030A7009E
:10004000A608031D2628A708031908008C120E1203
:100050000E1624082605A80025082705A900AA01D0
:10006000A8080319AA0AA908031DAA01AB01AA0836
:100070000319AB0A2B188C162B1C8C12A736A60C56
:100080000130A800042020287230210099008C0142
:100090008E0123008C018E012000A001A101A2018C
:1000A000A3012208A4002308A5001820A008031D0E
:1000B0007228A108031D7228A4010E1DA40A241889
:1000C0000E15241C0E11A208031D6D28A308031D84
:1000D0006D28A2018030A3006F28A336A20C143033
:1000E000A000A101A0080319A103A0035128803199
:0200F0004428A2
:020000040001F9
:02000E00A4FF4D
:02001000FFDE11
:00000001FF
